{
  "contractName": "tokens",
  "abi": [
    {
      "constant": true,
      "inputs": [
        {
          "internalType": "address",
          "name": "",
          "type": "address"
        }
      ],
      "name": "balanceOf",
      "outputs": [
        {
          "internalType": "uint256",
          "name": "",
          "type": "uint256"
        }
      ],
      "payable": false,
      "stateMutability": "view",
      "type": "function"
    },
    {
      "constant": false,
      "inputs": [],
      "name": "DTV",
      "outputs": [],
      "payable": false,
      "stateMutability": "nonpayable",
      "type": "function"
    },
    {
      "constant": false,
      "inputs": [
        {
          "internalType": "address",
          "name": "_to",
          "type": "address"
        },
        {
          "internalType": "uint256",
          "name": "_value",
          "type": "uint256"
        }
      ],
      "name": "transfer",
      "outputs": [],
      "payable": false,
      "stateMutability": "nonpayable",
      "type": "function"
    }
  ],
  "bytecode": "0x608060405234801561001057600080fd5b506102fd806100206000396000f3fe608060405234801561001057600080fd5b50600436106100415760003560e01c806311e9823b1461004657806370a0823114610050578063a9059cbb146100a8575b600080fd5b61004e6100f6565b005b6100926004803603602081101561006657600080fd5b81019080803573ffffffffffffffffffffffffffffffffffffffff16906020019092919050505061013e565b6040518082815260200191505060405180910390f35b6100f4600480360360408110156100be57600080fd5b81019080803573ffffffffffffffffffffffffffffffffffffffff16906020019092919080359060200190929190505050610156565b005b620186a06000803373ffffffffffffffffffffffffffffffffffffffff1673ffffffffffffffffffffffffffffffffffffffff16815260200190815260200160002081905550565b60006020528060005260406000206000915090505481565b806000803373ffffffffffffffffffffffffffffffffffffffff1673ffffffffffffffffffffffffffffffffffffffff1681526020019081526020016000205410156101a157600080fd5b6000808373ffffffffffffffffffffffffffffffffffffffff1673ffffffffffffffffffffffffffffffffffffffff16815260200190815260200160002054816000808573ffffffffffffffffffffffffffffffffffffffff1673ffffffffffffffffffffffffffffffffffffffff1681526020019081526020016000205401101561022c57600080fd5b806000803373ffffffffffffffffffffffffffffffffffffffff1673ffffffffffffffffffffffffffffffffffffffff16815260200190815260200160002060008282540392505081905550806000808473ffffffffffffffffffffffffffffffffffffffff1673ffffffffffffffffffffffffffffffffffffffff16815260200190815260200160002060008282540192505081905550505056fea265627a7a7231582003f21fd3519d2f34bdae20cdedb868fc23374e5beea63245f0b840fa2bd28abb64736f6c63430005100032",
  "source": "pragma solidity >=0.4.21 <0.7.0;\r\n\r\ncontract tokens {\r\n    /* This creates an array with all balances */\r\n    mapping (address => uint256) public balanceOf;\r\n\r\n    /* Initializes contract with initial supply tokens to the creator of the contract */\r\n    function DTV() public {\r\n        balanceOf[msg.sender] = 100000;              // Give the creator all initial tokens\r\n    }\r\n\r\n    /* Send coins */\r\n    function transfer(address _to, uint256 _value) public {\r\n        require(balanceOf[msg.sender] >= _value);           // Check if the sender has enough\r\n        require(balanceOf[_to] + _value >= balanceOf[_to]); // Check for overflows\r\n        balanceOf[msg.sender] -= _value;                    // Subtract from the sender\r\n        balanceOf[_to] += _value;                           // Add the same to the recipient\r\n    }\r\n}",
  "sourcePath": "C:\\Users\\marko\\Documents\\GitHub\\DAO-Streaming-Platform\\contracts\\tokens.sol",
  "compiler": {
    "name": "solc",
    "version": "0.5.16+commit.9c3226ce.Emscripten.clang"
  },
  "schemaVersion": "3.0.23",
  "updatedAt": "2020-04-26T03:37:14.804Z",
  "networkType": "ethereum",
  "devdoc": {
    "methods": {}
  },
  "userdoc": {
    "methods": {}
  }
}